{
  "transactions": [
    {
      "hash": "0x0dfcd4901d20cfa281d1e1d515e364278e5a534d5d7cad6a02cfa460c6fc765d",
      "transactionType": "CALL",
      "contractName": null,
      "contractAddress": "0x75faf114eafb1bdbe2f0316df893fd58ce46aa4d",
      "function": "transfer(address,uint256)",
      "arguments": [
        "0xC723c3cFA41d8B806FE86eFbBf3f630eD85226Fa",
        "100000"
      ],
      "transaction": {
        "from": "0x23bf95de9f90338f973056351c8cd2cb78cbe52f",
        "to": "0x75faf114eafb1bdbe2f0316df893fd58ce46aa4d",
        "gas": "0x1580e",
        "value": "0x0",
        "input": "0xa9059cbb000000000000000000000000c723c3cfa41d8b806fe86efbbf3f630ed85226fa00000000000000000000000000000000000000000000000000000000000186a0",
        "nonce": "0x2f9",
        "chainId": "0x66eee"
      },
      "additionalContracts": [],
      "isFixedGasLimit": false
    }
  ],
  "receipts": [
    {
      "status": "0x1",
      "cumulativeGasUsed": "0x3e590",
      "logs": [
        {
          "address": "0x75faf114eafb1bdbe2f0316df893fd58ce46aa4d",
          "topics": [
            "0xddf252ad1be2c89b69c2b068fc378daa952ba7f163c4a11628f55a4df523b3ef",
            "0x00000000000000000000000023bf95de9f90338f973056351c8cd2cb78cbe52f",
            "0x000000000000000000000000c723c3cfa41d8b806fe86efbbf3f630ed85226fa"
          ],
          "data": "0x00000000000000000000000000000000000000000000000000000000000186a0",
          "blockHash": "0xa9b69fcdf84edcb8c70a218ee9fbc261bce621c79ff14580c4d2ce6d1cd416d2",
          "blockNumber": "0xdf31491",
          "blockTimestamp": "0x696a5996",
          "transactionHash": "0x0dfcd4901d20cfa281d1e1d515e364278e5a534d5d7cad6a02cfa460c6fc765d",
          "transactionIndex": "0x2",
          "logIndex": "0x3",
          "removed": false
        }
      ],
      "logsBloom": "0x00000000000000000000000000000000000000000000000000000000000000000000000000000000000000000000000000000000000000000000000000000000800000000000000000000008000000000000000000000000000000000000000000000400000000000000000000000000000000000000000000000010000000000000000000000000000000000000000000000000000000000001000000000000000000008000000000000000000100000000000020000000000000000000000000000002000000000000000000000000008000000000000000000000000000000000000000000000000000000000000000000000000000000100000000000004",
      "type": "0x2",
      "transactionHash": "0x0dfcd4901d20cfa281d1e1d515e364278e5a534d5d7cad6a02cfa460c6fc765d",
      "transactionIndex": "0x2",
      "blockHash": "0xa9b69fcdf84edcb8c70a218ee9fbc261bce621c79ff14580c4d2ce6d1cd416d2",
      "blockNumber": "0xdf31491",
      "gasUsed": "0x101c7",
      "effectiveGasPrice": "0x1317b20",
      "from": "0x23bf95de9f90338f973056351c8cd2cb78cbe52f",
      "to": "0x75faf114eafb1bdbe2f0316df893fd58ce46aa4d",
      "contractAddress": null,
      "gasUsedForL1": "0xef8",
      "l1BlockNumber": "0x9975b9",
      "timeboosted": false
    }
  ],
  "libraries": [
    "src/config/Configuration.ArbitrumSepolia.sol:ConfigurationArbitrumSepolia:0xeA877Bb50e4550FAAB3dE0de21110FF2eaDbd607",
    "src/config/Configuration.Base.sol:ConfigurationBaseMainnet:0x42dBf5358d04c4fC65b8A2501732e1b799Cf8C7F",
    "src/config/Configuration.BaseSepolia.sol:ConfigurationBaseSepolia:0x8CD9F0A3Fb33793daeA0828985e8A39b014e4c25",
    "src/config/Configuration.Ethereum.sol:ConfigurationEthereumMainnet:0x7C59aB12ae1cE53A28aeE34d615Eb6f476774fa7",
    "src/config/Configuration.EthereumSepolia.sol:ConfigurationEthereumSepolia:0x43A0e44F7EbbC8DB17807C9583859dc5A06f6E3b",
    "src/config/Configuration.Local.sol:ConfigurationLocal:0xf471EeAbD90669d272Ff633CAAf2d9d6ab6FFC03",
    "src/config/Configuration.OptimismSepolia.sol:ConfigurationOptimismSepolia:0x1447f089Fd0673aD2B03920122Bc9788Be8746cd",
    "src/config/Configuration.sol:Configuration:0xE31E4AE4606486363084bf49f238d681784a7620"
  ],
  "pending": [],
  "returns": {},
  "timestamp": 1768577430914,
  "chain": 421614,
  "commit": "5ccd6e3"
}