{
  "transactions": [
    {
      "hash": "0xc408fa14b192f5683613b4396c173ac20965ecd00b9ab6f2f21e2dfd57ffe9f1",
      "transactionType": "CALL",
      "contractName": null,
      "contractAddress": "0x5fd84259d66cd46123540766be93dfe6d43130d7",
      "function": "transfer(address,uint256)",
      "arguments": [
        "0xa40A7D5e09169Fa8d25B85717f617C18193b1daf",
        "100000"
      ],
      "transaction": {
        "from": "0x23bf95de9f90338f973056351c8cd2cb78cbe52f",
        "to": "0x5fd84259d66cd46123540766be93dfe6d43130d7",
        "gas": "0x14f5f",
        "value": "0x0",
        "input": "0xa9059cbb000000000000000000000000a40a7d5e09169fa8d25b85717f617c18193b1daf00000000000000000000000000000000000000000000000000000000000186a0",
        "nonce": "0x9e",
        "chainId": "0xaa37dc"
      },
      "additionalContracts": [],
      "isFixedGasLimit": false
    }
  ],
  "receipts": [
    {
      "status": "0x1",
      "cumulativeGasUsed": "0x7328c5",
      "logs": [
        {
          "address": "0x5fd84259d66cd46123540766be93dfe6d43130d7",
          "topics": [
            "0xddf252ad1be2c89b69c2b068fc378daa952ba7f163c4a11628f55a4df523b3ef",
            "0x00000000000000000000000023bf95de9f90338f973056351c8cd2cb78cbe52f",
            "0x000000000000000000000000a40a7d5e09169fa8d25b85717f617c18193b1daf"
          ],
          "data": "0x00000000000000000000000000000000000000000000000000000000000186a0",
          "blockHash": "0xffae31dc3810889247b2ef78c273e162de160c4fd8a5ec3bfdeef7966c780fc3",
          "blockNumber": "0x24a0cb6",
          "blockTimestamp": "0x696af518",
          "transactionHash": "0xc408fa14b192f5683613b4396c173ac20965ecd00b9ab6f2f21e2dfd57ffe9f1",
          "transactionIndex": "0x4",
          "logIndex": "0x63",
          "removed": false
        }
      ],
      "logsBloom": "0x00000000000000000000000000000000000000000000000000000000000000000000000000000000000000000000000000000000000000000000020000000000000000000000000000000008000000000000000000000000000000000000000000000000000000000000000000000000000000200000000000000010000000000000000000000000000000000000000000000000000100000000000000000000000000008000000000000000002100000000000400000000000000000000000000000002000000000000000000000000008000000000000000000000000000000100000000000000000000000000000000000000000000000000000000000000",
      "type": "0x2",
      "transactionHash": "0xc408fa14b192f5683613b4396c173ac20965ecd00b9ab6f2f21e2dfd57ffe9f1",
      "transactionIndex": "0x4",
      "blockHash": "0xffae31dc3810889247b2ef78c273e162de160c4fd8a5ec3bfdeef7966c780fc3",
      "blockNumber": "0x24a0cb6",
      "gasUsed": "0xf2cf",
      "effectiveGasPrice": "0xf433a",
      "blobGasUsed": "0x9c40",
      "from": "0x23bf95de9f90338f973056351c8cd2cb78cbe52f",
      "to": "0x5fd84259d66cd46123540766be93dfe6d43130d7",
      "contractAddress": null,
      "daFootprintGasScalar": "0x190",
      "l1BaseFeeScalar": "0x1db0",
      "l1BlobBaseFee": "0x3bd358b",
      "l1BlobBaseFeeScalar": "0xd2730",
      "l1Fee": "0x46d8166ac",
      "l1GasPrice": "0x42b5cb34",
      "l1GasUsed": "0x640"
    }
  ],
  "libraries": [
    "src/config/Configuration.ArbitrumSepolia.sol:ConfigurationArbitrumSepolia:0xeA877Bb50e4550FAAB3dE0de21110FF2eaDbd607",
    "src/config/Configuration.Base.sol:ConfigurationBaseMainnet:0x42dBf5358d04c4fC65b8A2501732e1b799Cf8C7F",
    "src/config/Configuration.BaseSepolia.sol:ConfigurationBaseSepolia:0x8CD9F0A3Fb33793daeA0828985e8A39b014e4c25",
    "src/config/Configuration.Ethereum.sol:ConfigurationEthereumMainnet:0x7C59aB12ae1cE53A28aeE34d615Eb6f476774fa7",
    "src/config/Configuration.EthereumSepolia.sol:ConfigurationEthereumSepolia:0x43A0e44F7EbbC8DB17807C9583859dc5A06f6E3b",
    "src/config/Configuration.Local.sol:ConfigurationLocal:0xf471EeAbD90669d272Ff633CAAf2d9d6ab6FFC03",
    "src/config/Configuration.OptimismSepolia.sol:ConfigurationOptimismSepolia:0x1447f089Fd0673aD2B03920122Bc9788Be8746cd",
    "src/config/Configuration.sol:Configuration:0xE31E4AE4606486363084bf49f238d681784a7620"
  ],
  "pending": [],
  "returns": {},
  "timestamp": 1768617239232,
  "chain": 11155420,
  "commit": "0b3c20a"
}