{
  "transactions": [
    {
      "hash": "0xe56d66b2e065811eb55049a7be41ba33be1c76106a5de2d3aaceece9f986711a",
      "transactionType": "CALL",
      "contractName": null,
      "contractAddress": "0x75faf114eafb1bdbe2f0316df893fd58ce46aa4d",
      "function": "approve(address,uint256)",
      "arguments": [
        "0xc56DCDD5263EeF3262165a72DD4BE20C0Bd39E57",
        "115792089237316195423570985008687907853269984665640564039457584007913129639935"
      ],
      "transaction": {
        "from": "0x23bf95de9f90338f973056351c8cd2cb78cbe52f",
        "to": "0x75faf114eafb1bdbe2f0316df893fd58ce46aa4d",
        "gas": "0x13ba9",
        "value": "0x0",
        "input": "0x095ea7b3000000000000000000000000c56dcdd5263eef3262165a72dd4be20c0bd39e57ffffffffffffffffffffffffffffffffffffffffffffffffffffffffffffffff",
        "nonce": "0x300",
        "chainId": "0x66eee"
      },
      "additionalContracts": [],
      "isFixedGasLimit": false
    },
    {
      "hash": "0xe5ec9178708a2e09b0a62c2201ee0b9f7bb2ad7b3b444fd98329397195788d49",
      "transactionType": "CALL",
      "contractName": null,
      "contractAddress": "0xc56dcdd5263eef3262165a72dd4be20c0bd39e57",
      "function": "deposit(uint256,address)",
      "arguments": [
        "1000000",
        "0x23BF95De9F90338F973056351C8Cd2CB78cbe52f"
      ],
      "transaction": {
        "from": "0x23bf95de9f90338f973056351c8cd2cb78cbe52f",
        "to": "0xc56dcdd5263eef3262165a72dd4be20c0bd39e57",
        "gas": "0x713d3",
        "value": "0x0",
        "input": "0x6e553f6500000000000000000000000000000000000000000000000000000000000f424000000000000000000000000023bf95de9f90338f973056351c8cd2cb78cbe52f",
        "nonce": "0x301",
        "chainId": "0x66eee"
      },
      "additionalContracts": [],
      "isFixedGasLimit": false
    }
  ],
  "receipts": [
    {
      "status": "0x1",
      "cumulativeGasUsed": "0xeb6d",
      "logs": [
        {
          "address": "0x75faf114eafb1bdbe2f0316df893fd58ce46aa4d",
          "topics": [
            "0x8c5be1e5ebec7d5bd14f71427d1e84f3dd0314c0f7b2291e5b200ac8c7c3b925",
            "0x00000000000000000000000023bf95de9f90338f973056351c8cd2cb78cbe52f",
            "0x000000000000000000000000c56dcdd5263eef3262165a72dd4be20c0bd39e57"
          ],
          "data": "0xffffffffffffffffffffffffffffffffffffffffffffffffffffffffffffffff",
          "blockHash": "0x25bbbc349a841476cd63d9b22d1c42fe2ffc79d285cfd50f1c85fec871dc4f5e",
          "blockNumber": "0xdf527a6",
          "blockTimestamp": "0x696af4ff",
          "transactionHash": "0xe56d66b2e065811eb55049a7be41ba33be1c76106a5de2d3aaceece9f986711a",
          "transactionIndex": "0x1",
          "logIndex": "0x0",
          "removed": false
        }
      ],
      "logsBloom": "0x00000000000000000000000000000000000000000000000000000000000000000000000000000000000000000000000000000000000000000000000000200000800000000002000000000000000000000000000000000000000000000000000000000000000000000000000000000000000000000100000000000000000000000000000000000000000000010000000000000000000000000000000000000000020000008000000000000000000100000000000000000000000000000000000000000000000000000000000000000000008000000000000000000000000000000010000000000000000000000000000000000000000000000100000000000004",
      "type": "0x2",
      "transactionHash": "0xe56d66b2e065811eb55049a7be41ba33be1c76106a5de2d3aaceece9f986711a",
      "transactionIndex": "0x1",
      "blockHash": "0x25bbbc349a841476cd63d9b22d1c42fe2ffc79d285cfd50f1c85fec871dc4f5e",
      "blockNumber": "0xdf527a6",
      "gasUsed": "0xeb6d",
      "effectiveGasPrice": "0x1312d00",
      "from": "0x23bf95de9f90338f973056351c8cd2cb78cbe52f",
      "to": "0x75faf114eafb1bdbe2f0316df893fd58ce46aa4d",
      "contractAddress": null,
      "gasUsedForL1": "0x1184",
      "l1BlockNumber": "0x9982aa",
      "timeboosted": false
    },
    {
      "status": "0x1",
      "cumulativeGasUsed": "0x4e835",
      "logs": [
        {
          "address": "0x75faf114eafb1bdbe2f0316df893fd58ce46aa4d",
          "topics": [
            "0xddf252ad1be2c89b69c2b068fc378daa952ba7f163c4a11628f55a4df523b3ef",
            "0x00000000000000000000000023bf95de9f90338f973056351c8cd2cb78cbe52f",
            "0x000000000000000000000000c56dcdd5263eef3262165a72dd4be20c0bd39e57"
          ],
          "data": "0x00000000000000000000000000000000000000000000000000000000000f4240",
          "blockHash": "0xdd34725e4cc92e745f545e654ee5aa1ac4ab09955c21270f79999d03fa8058ef",
          "blockNumber": "0xdf527a8",
          "blockTimestamp": "0x696af4ff",
          "transactionHash": "0xe5ec9178708a2e09b0a62c2201ee0b9f7bb2ad7b3b444fd98329397195788d49",
          "transactionIndex": "0x1",
          "logIndex": "0x0",
          "removed": false
        },
        {
          "address": "0xc56dcdd5263eef3262165a72dd4be20c0bd39e57",
          "topics": [
            "0xddf252ad1be2c89b69c2b068fc378daa952ba7f163c4a11628f55a4df523b3ef",
            "0x0000000000000000000000000000000000000000000000000000000000000000",
            "0x00000000000000000000000023bf95de9f90338f973056351c8cd2cb78cbe52f"
          ],
          "data": "0x00000000000000000000000000000000000000000000000000000000000f4240",
          "blockHash": "0xdd34725e4cc92e745f545e654ee5aa1ac4ab09955c21270f79999d03fa8058ef",
          "blockNumber": "0xdf527a8",
          "blockTimestamp": "0x696af4ff",
          "transactionHash": "0xe5ec9178708a2e09b0a62c2201ee0b9f7bb2ad7b3b444fd98329397195788d49",
          "transactionIndex": "0x1",
          "logIndex": "0x1",
          "removed": false
        },
        {
          "address": "0xc56dcdd5263eef3262165a72dd4be20c0bd39e57",
          "topics": [
            "0xdcbc1c05240f31ff3ad067ef1ee35ce4997762752e3a095284754544f4c709d7",
            "0x00000000000000000000000023bf95de9f90338f973056351c8cd2cb78cbe52f",
            "0x00000000000000000000000023bf95de9f90338f973056351c8cd2cb78cbe52f"
          ],
          "data": "0x00000000000000000000000000000000000000000000000000000000000f424000000000000000000000000000000000000000000000000000000000000f4240",
          "blockHash": "0xdd34725e4cc92e745f545e654ee5aa1ac4ab09955c21270f79999d03fa8058ef",
          "blockNumber": "0xdf527a8",
          "blockTimestamp": "0x696af4ff",
          "transactionHash": "0xe5ec9178708a2e09b0a62c2201ee0b9f7bb2ad7b3b444fd98329397195788d49",
          "transactionIndex": "0x1",
          "logIndex": "0x2",
          "removed": false
        },
        {
          "address": "0xbfc91d59fdaa134a4ed45f7b584caf96d7792eff",
          "topics": [
            "0x804c9b842b2748a22bb64b345453a3de7ca54a6ca45ce00d415894979e22897a",
            "0x00000000000000000000000075faf114eafb1bdbe2f0316df893fd58ce46aa4d"
          ],
          "data": "0x0000000000000000000000000000000000000000002343152b00188c7d10a8a600000000000000000000000000000000000000000068628775e6ead6a66da2f80000000000000000000000000000000000000000002e7b73db5ae1dca06da2f8000000000000000000000000000000000000000003813e95280d6712c6c7e1230000000000000000000000000000000000000000039c2192783b8d8fb3fabcbf",
          "blockHash": "0xdd34725e4cc92e745f545e654ee5aa1ac4ab09955c21270f79999d03fa8058ef",
          "blockNumber": "0xdf527a8",
          "blockTimestamp": "0x696af4ff",
          "transactionHash": "0xe5ec9178708a2e09b0a62c2201ee0b9f7bb2ad7b3b444fd98329397195788d49",
          "transactionIndex": "0x1",
          "logIndex": "0x3",
          "removed": false
        },
        {
          "address": "0x75faf114eafb1bdbe2f0316df893fd58ce46aa4d",
          "topics": [
            "0xddf252ad1be2c89b69c2b068fc378daa952ba7f163c4a11628f55a4df523b3ef",
            "0x000000000000000000000000c56dcdd5263eef3262165a72dd4be20c0bd39e57",
            "0x000000000000000000000000460b97bd498e1157530aeb3086301d5225b91216"
          ],
          "data": "0x00000000000000000000000000000000000000000000000000000000000f4240",
          "blockHash": "0xdd34725e4cc92e745f545e654ee5aa1ac4ab09955c21270f79999d03fa8058ef",
          "blockNumber": "0xdf527a8",
          "blockTimestamp": "0x696af4ff",
          "transactionHash": "0xe5ec9178708a2e09b0a62c2201ee0b9f7bb2ad7b3b444fd98329397195788d49",
          "transactionIndex": "0x1",
          "logIndex": "0x4",
          "removed": false
        },
        {
          "address": "0x460b97bd498e1157530aeb3086301d5225b91216",
          "topics": [
            "0xddf252ad1be2c89b69c2b068fc378daa952ba7f163c4a11628f55a4df523b3ef",
            "0x0000000000000000000000000000000000000000000000000000000000000000",
            "0x000000000000000000000000c56dcdd5263eef3262165a72dd4be20c0bd39e57"
          ],
          "data": "0x00000000000000000000000000000000000000000000000000000000000f4240",
          "blockHash": "0xdd34725e4cc92e745f545e654ee5aa1ac4ab09955c21270f79999d03fa8058ef",
          "blockNumber": "0xdf527a8",
          "blockTimestamp": "0x696af4ff",
          "transactionHash": "0xe5ec9178708a2e09b0a62c2201ee0b9f7bb2ad7b3b444fd98329397195788d49",
          "transactionIndex": "0x1",
          "logIndex": "0x5",
          "removed": false
        },
        {
          "address": "0x460b97bd498e1157530aeb3086301d5225b91216",
          "topics": [
            "0x458f5fa412d0f69b08dd84872b0215675cc67bc1d5b6fd93300a1c3878b86196",
            "0x000000000000000000000000c56dcdd5263eef3262165a72dd4be20c0bd39e57",
            "0x000000000000000000000000c56dcdd5263eef3262165a72dd4be20c0bd39e57"
          ],
          "data": "0x00000000000000000000000000000000000000000000000000000000000f42400000000000000000000000000000000000000000000000000000000000000000000000000000000000000000000000000000000003813e95280d6712c6c7e123",
          "blockHash": "0xdd34725e4cc92e745f545e654ee5aa1ac4ab09955c21270f79999d03fa8058ef",
          "blockNumber": "0xdf527a8",
          "blockTimestamp": "0x696af4ff",
          "transactionHash": "0xe5ec9178708a2e09b0a62c2201ee0b9f7bb2ad7b3b444fd98329397195788d49",
          "transactionIndex": "0x1",
          "logIndex": "0x6",
          "removed": false
        },
        {
          "address": "0xbfc91d59fdaa134a4ed45f7b584caf96d7792eff",
          "topics": [
            "0x00058a56ea94653cdf4f152d227ace22d4c00ad99e2a43f58cb7d9e3feb295f2",
            "0x00000000000000000000000075faf114eafb1bdbe2f0316df893fd58ce46aa4d",
            "0x000000000000000000000000c56dcdd5263eef3262165a72dd4be20c0bd39e57"
          ],
          "data": "0x",
          "blockHash": "0xdd34725e4cc92e745f545e654ee5aa1ac4ab09955c21270f79999d03fa8058ef",
          "blockNumber": "0xdf527a8",
          "blockTimestamp": "0x696af4ff",
          "transactionHash": "0xe5ec9178708a2e09b0a62c2201ee0b9f7bb2ad7b3b444fd98329397195788d49",
          "transactionIndex": "0x1",
          "logIndex": "0x7",
          "removed": false
        },
        {
          "address": "0xbfc91d59fdaa134a4ed45f7b584caf96d7792eff",
          "topics": [
            "0x2b627736bca15cd5381dcf80b0bf11fd197d01a037c52b927a881a10fb73ba61",
            "0x00000000000000000000000075faf114eafb1bdbe2f0316df893fd58ce46aa4d",
            "0x000000000000000000000000c56dcdd5263eef3262165a72dd4be20c0bd39e57",
            "0x0000000000000000000000000000000000000000000000000000000000000000"
          ],
          "data": "0x000000000000000000000000c56dcdd5263eef3262165a72dd4be20c0bd39e5700000000000000000000000000000000000000000000000000000000000f4240",
          "blockHash": "0xdd34725e4cc92e745f545e654ee5aa1ac4ab09955c21270f79999d03fa8058ef",
          "blockNumber": "0xdf527a8",
          "blockTimestamp": "0x696af4ff",
          "transactionHash": "0xe5ec9178708a2e09b0a62c2201ee0b9f7bb2ad7b3b444fd98329397195788d49",
          "transactionIndex": "0x1",
          "logIndex": "0x8",
          "removed": false
        },
        {
          "address": "0xc56dcdd5263eef3262165a72dd4be20c0bd39e57",
          "topics": [
            "0xba3ffa58e6beddd202dec6f1b1bb88dbb12d8823d523283b2ebbe9b627c9eb02"
          ],
          "data": "0x00000000000000000000000000000000000000000000000000000000000f424000000000000000000000000000000000000000000000000000000000000f4240",
          "blockHash": "0xdd34725e4cc92e745f545e654ee5aa1ac4ab09955c21270f79999d03fa8058ef",
          "blockNumber": "0xdf527a8",
          "blockTimestamp": "0x696af4ff",
          "transactionHash": "0xe5ec9178708a2e09b0a62c2201ee0b9f7bb2ad7b3b444fd98329397195788d49",
          "transactionIndex": "0x1",
          "logIndex": "0x9",
          "removed": false
        }
      ],
      "logsBloom": "0x000000000000080000800000000000000000000000000000000000000000000000000000000000000000000000040000000180000000000100000000000000008000004401020002000000080100000000000000000000000000000400000000004000000200000000000000000008000200000001040020000000100001000000000000800000000000000100000000000c0000000000000000000000000000000000008000000000000000000100000000000000000000000000000000010002000002000000000000002040000000008000000008080800000400000020000000000000000000000000000000000040000000000400001100400000000004",
      "type": "0x2",
      "transactionHash": "0xe5ec9178708a2e09b0a62c2201ee0b9f7bb2ad7b3b444fd98329397195788d49",
      "transactionIndex": "0x1",
      "blockHash": "0xdd34725e4cc92e745f545e654ee5aa1ac4ab09955c21270f79999d03fa8058ef",
      "blockNumber": "0xdf527a8",
      "gasUsed": "0x4e835",
      "effectiveGasPrice": "0x1341b00",
      "from": "0x23bf95de9f90338f973056351c8cd2cb78cbe52f",
      "to": "0xc56dcdd5263eef3262165a72dd4be20c0bd39e57",
      "contractAddress": null,
      "gasUsedForL1": "0x115a",
      "l1BlockNumber": "0x9982aa",
      "timeboosted": false
    }
  ],
  "libraries": [
    "src/config/Configuration.ArbitrumSepolia.sol:ConfigurationArbitrumSepolia:0xeA877Bb50e4550FAAB3dE0de21110FF2eaDbd607",
    "src/config/Configuration.Base.sol:ConfigurationBaseMainnet:0x42dBf5358d04c4fC65b8A2501732e1b799Cf8C7F",
    "src/config/Configuration.BaseSepolia.sol:ConfigurationBaseSepolia:0x8CD9F0A3Fb33793daeA0828985e8A39b014e4c25",
    "src/config/Configuration.Ethereum.sol:ConfigurationEthereumMainnet:0x7C59aB12ae1cE53A28aeE34d615Eb6f476774fa7",
    "src/config/Configuration.EthereumSepolia.sol:ConfigurationEthereumSepolia:0x43A0e44F7EbbC8DB17807C9583859dc5A06f6E3b",
    "src/config/Configuration.Local.sol:ConfigurationLocal:0xf471EeAbD90669d272Ff633CAAf2d9d6ab6FFC03",
    "src/config/Configuration.OptimismSepolia.sol:ConfigurationOptimismSepolia:0x1447f089Fd0673aD2B03920122Bc9788Be8746cd",
    "src/config/Configuration.sol:Configuration:0xE31E4AE4606486363084bf49f238d681784a7620"
  ],
  "pending": [],
  "returns": {},
  "timestamp": 1768617216118,
  "chain": 421614,
  "commit": "0b3c20a"
}