{
  "transactions": [
    {
      "hash": "0xdb9ce840b4e69a1d07cee9a2b0b30f6bf44948c274cd2367fa92a361d9436776",
      "transactionType": "CALL",
      "contractName": null,
      "contractAddress": "0x75faf114eafb1bdbe2f0316df893fd58ce46aa4d",
      "function": "approve(address,uint256)",
      "arguments": [
        "0x6253aA73497B9c9Ca3fAaE68DC44B5E3f7F832bD",
        "115792089237316195423570985008687907853269984665640564039457584007913129639935"
      ],
      "transaction": {
        "from": "0x23bf95de9f90338f973056351c8cd2cb78cbe52f",
        "to": "0x75faf114eafb1bdbe2f0316df893fd58ce46aa4d",
        "gas": "0x11f5d",
        "value": "0x0",
        "input": "0x095ea7b30000000000000000000000006253aa73497b9c9ca3faae68dc44b5e3f7f832bdffffffffffffffffffffffffffffffffffffffffffffffffffffffffffffffff",
        "nonce": "0x2dd",
        "chainId": "0x66eee"
      },
      "additionalContracts": [],
      "isFixedGasLimit": false
    },
    {
      "hash": "0xfe6dbadfeaa11d9f9d940d5eb7cec2afe2045b748f65d4854a4543b8431a47e6",
      "transactionType": "CALL",
      "contractName": null,
      "contractAddress": "0x6253aa73497b9c9ca3faae68dc44b5e3f7f832bd",
      "function": "deposit(uint256,address)",
      "arguments": [
        "1000000",
        "0x23BF95De9F90338F973056351C8Cd2CB78cbe52f"
      ],
      "transaction": {
        "from": "0x23bf95de9f90338f973056351c8cd2cb78cbe52f",
        "to": "0x6253aa73497b9c9ca3faae68dc44b5e3f7f832bd",
        "gas": "0x713d3",
        "value": "0x0",
        "input": "0x6e553f6500000000000000000000000000000000000000000000000000000000000f424000000000000000000000000023bf95de9f90338f973056351c8cd2cb78cbe52f",
        "nonce": "0x2de",
        "chainId": "0x66eee"
      },
      "additionalContracts": [],
      "isFixedGasLimit": false
    }
  ],
  "receipts": [
    {
      "status": "0x1",
      "cumulativeGasUsed": "0x3377c",
      "logs": [
        {
          "address": "0x75faf114eafb1bdbe2f0316df893fd58ce46aa4d",
          "topics": [
            "0x8c5be1e5ebec7d5bd14f71427d1e84f3dd0314c0f7b2291e5b200ac8c7c3b925",
            "0x00000000000000000000000023bf95de9f90338f973056351c8cd2cb78cbe52f",
            "0x0000000000000000000000006253aa73497b9c9ca3faae68dc44b5e3f7f832bd"
          ],
          "data": "0xffffffffffffffffffffffffffffffffffffffffffffffffffffffffffffffff",
          "blockHash": "0xf2c1eadf19a70fbc115710cf7d8ffa64b9276f548a23b132558d0c0b1fb64be6",
          "blockNumber": "0xdc601f3",
          "blockTimestamp": "0x695cc4db",
          "transactionHash": "0xdb9ce840b4e69a1d07cee9a2b0b30f6bf44948c274cd2367fa92a361d9436776",
          "transactionIndex": "0x3",
          "logIndex": "0x1",
          "removed": false
        }
      ],
      "logsBloom": "0x00000000000000000000000000000000000000000000000000000000000000000000000000000000000000000000000000000000000000000000000002200000800000000000000000000000000000000000000000000000000000000000000000000000000000000000000000000000000000000000000000000000000000000000000000000000000000002000000000000000000000000000000000000000020000008000000000000000000100000000000000000000000000000000040000000000000000000000000000000000008000000000000000000000000000000010000000000000000000000000000000000000000000000100000000000004",
      "type": "0x2",
      "transactionHash": "0xdb9ce840b4e69a1d07cee9a2b0b30f6bf44948c274cd2367fa92a361d9436776",
      "transactionIndex": "0x3",
      "blockHash": "0xf2c1eadf19a70fbc115710cf7d8ffa64b9276f548a23b132558d0c0b1fb64be6",
      "blockNumber": "0xdc601f3",
      "gasUsed": "0xd9e9",
      "effectiveGasPrice": "0x131f820",
      "from": "0x23bf95de9f90338f973056351c8cd2cb78cbe52f",
      "to": "0x75faf114eafb1bdbe2f0316df893fd58ce46aa4d",
      "contractAddress": null,
      "gasUsedForL1": "0x0",
      "l1BlockNumber": "0x986bc1",
      "timeboosted": false
    },
    {
      "status": "0x1",
      "cumulativeGasUsed": "0x4d6db",
      "logs": [
        {
          "address": "0x75faf114eafb1bdbe2f0316df893fd58ce46aa4d",
          "topics": [
            "0xddf252ad1be2c89b69c2b068fc378daa952ba7f163c4a11628f55a4df523b3ef",
            "0x00000000000000000000000023bf95de9f90338f973056351c8cd2cb78cbe52f",
            "0x0000000000000000000000006253aa73497b9c9ca3faae68dc44b5e3f7f832bd"
          ],
          "data": "0x00000000000000000000000000000000000000000000000000000000000f4240",
          "blockHash": "0x6309bfa5beb2e1d4980f3ffc4c08c76d944ca7bf39c744ded835e47304279090",
          "blockNumber": "0xdc601f5",
          "blockTimestamp": "0x695cc4dc",
          "transactionHash": "0xfe6dbadfeaa11d9f9d940d5eb7cec2afe2045b748f65d4854a4543b8431a47e6",
          "transactionIndex": "0x1",
          "logIndex": "0x0",
          "removed": false
        },
        {
          "address": "0x6253aa73497b9c9ca3faae68dc44b5e3f7f832bd",
          "topics": [
            "0xddf252ad1be2c89b69c2b068fc378daa952ba7f163c4a11628f55a4df523b3ef",
            "0x0000000000000000000000000000000000000000000000000000000000000000",
            "0x00000000000000000000000023bf95de9f90338f973056351c8cd2cb78cbe52f"
          ],
          "data": "0x00000000000000000000000000000000000000000000000000000000000f4240",
          "blockHash": "0x6309bfa5beb2e1d4980f3ffc4c08c76d944ca7bf39c744ded835e47304279090",
          "blockNumber": "0xdc601f5",
          "blockTimestamp": "0x695cc4dc",
          "transactionHash": "0xfe6dbadfeaa11d9f9d940d5eb7cec2afe2045b748f65d4854a4543b8431a47e6",
          "transactionIndex": "0x1",
          "logIndex": "0x1",
          "removed": false
        },
        {
          "address": "0x6253aa73497b9c9ca3faae68dc44b5e3f7f832bd",
          "topics": [
            "0xdcbc1c05240f31ff3ad067ef1ee35ce4997762752e3a095284754544f4c709d7",
            "0x00000000000000000000000023bf95de9f90338f973056351c8cd2cb78cbe52f",
            "0x00000000000000000000000023bf95de9f90338f973056351c8cd2cb78cbe52f"
          ],
          "data": "0x00000000000000000000000000000000000000000000000000000000000f424000000000000000000000000000000000000000000000000000000000000f4240",
          "blockHash": "0x6309bfa5beb2e1d4980f3ffc4c08c76d944ca7bf39c744ded835e47304279090",
          "blockNumber": "0xdc601f5",
          "blockTimestamp": "0x695cc4dc",
          "transactionHash": "0xfe6dbadfeaa11d9f9d940d5eb7cec2afe2045b748f65d4854a4543b8431a47e6",
          "transactionIndex": "0x1",
          "logIndex": "0x2",
          "removed": false
        },
        {
          "address": "0xbfc91d59fdaa134a4ed45f7b584caf96d7792eff",
          "topics": [
            "0x804c9b842b2748a22bb64b345453a3de7ca54a6ca45ce00d415894979e22897a",
            "0x00000000000000000000000075faf114eafb1bdbe2f0316df893fd58ce46aa4d"
          ],
          "data": "0x000000000000000000000000000000000000000000233df7bd3f7a15f8dd0802000000000000000000000000000000000000000000685f284c198db32b5f578f0000000000000000000000000000000000000000002e7814b18d84b9255f578f000000000000000000000000000000000000000003801e24eef29df51979b9730000000000000000000000000000000000000000039a99fa8615ad5059235dbe",
          "blockHash": "0x6309bfa5beb2e1d4980f3ffc4c08c76d944ca7bf39c744ded835e47304279090",
          "blockNumber": "0xdc601f5",
          "blockTimestamp": "0x695cc4dc",
          "transactionHash": "0xfe6dbadfeaa11d9f9d940d5eb7cec2afe2045b748f65d4854a4543b8431a47e6",
          "transactionIndex": "0x1",
          "logIndex": "0x3",
          "removed": false
        },
        {
          "address": "0x75faf114eafb1bdbe2f0316df893fd58ce46aa4d",
          "topics": [
            "0xddf252ad1be2c89b69c2b068fc378daa952ba7f163c4a11628f55a4df523b3ef",
            "0x0000000000000000000000006253aa73497b9c9ca3faae68dc44b5e3f7f832bd",
            "0x000000000000000000000000460b97bd498e1157530aeb3086301d5225b91216"
          ],
          "data": "0x00000000000000000000000000000000000000000000000000000000000f4240",
          "blockHash": "0x6309bfa5beb2e1d4980f3ffc4c08c76d944ca7bf39c744ded835e47304279090",
          "blockNumber": "0xdc601f5",
          "blockTimestamp": "0x695cc4dc",
          "transactionHash": "0xfe6dbadfeaa11d9f9d940d5eb7cec2afe2045b748f65d4854a4543b8431a47e6",
          "transactionIndex": "0x1",
          "logIndex": "0x4",
          "removed": false
        },
        {
          "address": "0x460b97bd498e1157530aeb3086301d5225b91216",
          "topics": [
            "0xddf252ad1be2c89b69c2b068fc378daa952ba7f163c4a11628f55a4df523b3ef",
            "0x0000000000000000000000000000000000000000000000000000000000000000",
            "0x0000000000000000000000006253aa73497b9c9ca3faae68dc44b5e3f7f832bd"
          ],
          "data": "0x00000000000000000000000000000000000000000000000000000000000f4240",
          "blockHash": "0x6309bfa5beb2e1d4980f3ffc4c08c76d944ca7bf39c744ded835e47304279090",
          "blockNumber": "0xdc601f5",
          "blockTimestamp": "0x695cc4dc",
          "transactionHash": "0xfe6dbadfeaa11d9f9d940d5eb7cec2afe2045b748f65d4854a4543b8431a47e6",
          "transactionIndex": "0x1",
          "logIndex": "0x5",
          "removed": false
        },
        {
          "address": "0x460b97bd498e1157530aeb3086301d5225b91216",
          "topics": [
            "0x458f5fa412d0f69b08dd84872b0215675cc67bc1d5b6fd93300a1c3878b86196",
            "0x0000000000000000000000006253aa73497b9c9ca3faae68dc44b5e3f7f832bd",
            "0x0000000000000000000000006253aa73497b9c9ca3faae68dc44b5e3f7f832bd"
          ],
          "data": "0x00000000000000000000000000000000000000000000000000000000000f42400000000000000000000000000000000000000000000000000000000000000000000000000000000000000000000000000000000003801e24eef29df51979b973",
          "blockHash": "0x6309bfa5beb2e1d4980f3ffc4c08c76d944ca7bf39c744ded835e47304279090",
          "blockNumber": "0xdc601f5",
          "blockTimestamp": "0x695cc4dc",
          "transactionHash": "0xfe6dbadfeaa11d9f9d940d5eb7cec2afe2045b748f65d4854a4543b8431a47e6",
          "transactionIndex": "0x1",
          "logIndex": "0x6",
          "removed": false
        },
        {
          "address": "0xbfc91d59fdaa134a4ed45f7b584caf96d7792eff",
          "topics": [
            "0x00058a56ea94653cdf4f152d227ace22d4c00ad99e2a43f58cb7d9e3feb295f2",
            "0x00000000000000000000000075faf114eafb1bdbe2f0316df893fd58ce46aa4d",
            "0x0000000000000000000000006253aa73497b9c9ca3faae68dc44b5e3f7f832bd"
          ],
          "data": "0x",
          "blockHash": "0x6309bfa5beb2e1d4980f3ffc4c08c76d944ca7bf39c744ded835e47304279090",
          "blockNumber": "0xdc601f5",
          "blockTimestamp": "0x695cc4dc",
          "transactionHash": "0xfe6dbadfeaa11d9f9d940d5eb7cec2afe2045b748f65d4854a4543b8431a47e6",
          "transactionIndex": "0x1",
          "logIndex": "0x7",
          "removed": false
        },
        {
          "address": "0xbfc91d59fdaa134a4ed45f7b584caf96d7792eff",
          "topics": [
            "0x2b627736bca15cd5381dcf80b0bf11fd197d01a037c52b927a881a10fb73ba61",
            "0x00000000000000000000000075faf114eafb1bdbe2f0316df893fd58ce46aa4d",
            "0x0000000000000000000000006253aa73497b9c9ca3faae68dc44b5e3f7f832bd",
            "0x0000000000000000000000000000000000000000000000000000000000000000"
          ],
          "data": "0x0000000000000000000000006253aa73497b9c9ca3faae68dc44b5e3f7f832bd00000000000000000000000000000000000000000000000000000000000f4240",
          "blockHash": "0x6309bfa5beb2e1d4980f3ffc4c08c76d944ca7bf39c744ded835e47304279090",
          "blockNumber": "0xdc601f5",
          "blockTimestamp": "0x695cc4dc",
          "transactionHash": "0xfe6dbadfeaa11d9f9d940d5eb7cec2afe2045b748f65d4854a4543b8431a47e6",
          "transactionIndex": "0x1",
          "logIndex": "0x8",
          "removed": false
        },
        {
          "address": "0x6253aa73497b9c9ca3faae68dc44b5e3f7f832bd",
          "topics": [
            "0xba3ffa58e6beddd202dec6f1b1bb88dbb12d8823d523283b2ebbe9b627c9eb02"
          ],
          "data": "0x00000000000000000000000000000000000000000000000000000000000f424000000000000000000000000000000000000000000000000000000000000f4240",
          "blockHash": "0x6309bfa5beb2e1d4980f3ffc4c08c76d944ca7bf39c744ded835e47304279090",
          "blockNumber": "0xdc601f5",
          "blockTimestamp": "0x695cc4dc",
          "transactionHash": "0xfe6dbadfeaa11d9f9d940d5eb7cec2afe2045b748f65d4854a4543b8431a47e6",
          "transactionIndex": "0x1",
          "logIndex": "0x9",
          "removed": false
        }
      ],
      "logsBloom": "0x000000000000080000800000000000000000000000000000000000000000000000000000000000000000000000040000000180000000000100000000020000008000004401000002000000080100000000000000000000000000000400000000000000000200000000000000000008000200000000040020000000100001000000000000800000000000000020000020000c0000000000000080000000000000000000008000000000000000000100000000000000000000000000000000050002000002000000000000002040000000008000000008080000000400000020000000000000000000000000000000000040000000200000001100400000000004",
      "type": "0x2",
      "transactionHash": "0xfe6dbadfeaa11d9f9d940d5eb7cec2afe2045b748f65d4854a4543b8431a47e6",
      "transactionIndex": "0x1",
      "blockHash": "0x6309bfa5beb2e1d4980f3ffc4c08c76d944ca7bf39c744ded835e47304279090",
      "blockNumber": "0xdc601f5",
      "gasUsed": "0x4d6db",
      "effectiveGasPrice": "0x1314470",
      "from": "0x23bf95de9f90338f973056351c8cd2cb78cbe52f",
      "to": "0x6253aa73497b9c9ca3faae68dc44b5e3f7f832bd",
      "contractAddress": null,
      "gasUsedForL1": "0x0",
      "l1BlockNumber": "0x986bc1",
      "timeboosted": false
    }
  ],
  "libraries": [
    "src/config/Configuration.ArbitrumSepolia.sol:ConfigurationArbitrumSepolia:0xeA877Bb50e4550FAAB3dE0de21110FF2eaDbd607",
    "src/config/Configuration.Base.sol:ConfigurationBaseMainnet:0x42dBf5358d04c4fC65b8A2501732e1b799Cf8C7F",
    "src/config/Configuration.BaseSepolia.sol:ConfigurationBaseSepolia:0x8CD9F0A3Fb33793daeA0828985e8A39b014e4c25",
    "src/config/Configuration.Ethereum.sol:ConfigurationEthereumMainnet:0x7C59aB12ae1cE53A28aeE34d615Eb6f476774fa7",
    "src/config/Configuration.EthereumSepolia.sol:ConfigurationEthereumSepolia:0x43A0e44F7EbbC8DB17807C9583859dc5A06f6E3b",
    "src/config/Configuration.Local.sol:ConfigurationLocal:0xf471EeAbD90669d272Ff633CAAf2d9d6ab6FFC03",
    "src/config/Configuration.OptimismSepolia.sol:ConfigurationOptimismSepolia:0x1447f089Fd0673aD2B03920122Bc9788Be8746cd",
    "src/config/Configuration.sol:Configuration:0xE31E4AE4606486363084bf49f238d681784a7620"
  ],
  "pending": [],
  "returns": {},
  "timestamp": 1767687388454,
  "chain": 421614,
  "commit": "420d1d2"
}